:020000040800F2
:1000000000200020AD0C0008190300081B030008A5
:100010001D0300081F030008210300080000000062
:1000200000000000000000000000000023030008A2
:10003000250300080000000027030008290300082A
:10004000F50C0008F50C0008F50C0008F50C00088C
:10005000F50C0008F50C0008F50C0008F50C00087C
:10006000F50C0008F50C0008F50C0008F50C00086C
:10007000F50C0008F50C0008F50C0008F50C00085C
:10008000F50C0008F50C0008F50C00080000000055
:10009000000000000000000000000000F50C000857
:1000A000F50C0008F50C0008F50C0008F50C00082C
:1000B000F50C0008F50C0008F50C0008F50C00081C
:1000C000F50C00080000000000000000F50C00081E
:1000D000F50C0008F50C0008F50C0008F50C0008FC
:1000E000F50C0008F50C0008F50C000800000000F5
:1000F0000000000000000000000000000000000000
:1001000000000000000000000000000000000000EF
:100110000000000000000000F50C0008F50C0008CD
:1001200000000000000000000000000000000000CF
:1001300000000000000000000000000000000000BF
:1001400000000000000000000000000000000000AF
:10015000000000000000000000000000000000009F
:10016000000000000000000000000000000000008F
:10017000000000000000000000000000000000007F
:10018000000000000000000000000000000000006F
:10019000000000000000000000000000000000005F
:1001A000000000000000000000000000000000004F
:1001B000000000000000000000000000000000003F
:1001C0000000000000000000000000005FF808F1DF
:1001D00010B5054C237833B9044B13B10448AFF381
:1001E00000800123237010BD0C00002000000000DF
:1001F000500D000808B5034B1BB103490348AFF38A
:10020000008008BD0000000010000020500D000814
:1002100070B588B0002404940594069407941C4B90
:100220009A6942F010029A619A6902F010020192F2
:10023000019A9A6942F020029A619A6902F02002BA
:100240000292029A9A6942F004029A619B6903F051
:1002500004030393039B0F4D22464FF4407128463D
:1002600000F09AFC012604960594069404A90A4815
:1002700000F0A8FB4FF44073049305960694022304
:10028000079304A9284600F09DFB08B070BD00BF8D
:1002900000100240001001400008014000BF7047FC
:1002A00010B590B02422002107A800F049FD0024D9
:1002B0000194029403940494059402230693012369
:1002C0000A9310230B9306A800F0AEF80F230193B6
:1002D0000294039404940594214601A800F0CEFAF8
:1002E00010B010BD08B500F06BF8FFF7D9FFFFF7AD
:1002F0008FFFFFF7D3FF074C01224FF40071204618
:1003000000F04AFC01224FF48071204600F044FCCA
:10031000F1E700BF001001407047FEE7FEE7FEE78F
:10032000FEE770477047704708B500F055F808BD04
:1003300082B00E4B9A6942F001029A619A6902F00A
:1003400001020092009ADA6942F08052DA61DB69B8
:1003500003F080530193019B054A536823F0E06347
:1003600043F00073536002B0704700BF00100240BA
:100370000000014010B504460E4B18784FF47A7314
:10038000B3FBF0F30C4A1068B0FBF3F000F050FC44
:1003900068B90F2C01D901200AE0002221464FF054
:1003A000FF3000F011FC054B1C60002000E0012034
:1003B00010BD00BF00000020080000200400002045
:1003C00008B5032000F0EEFB0020FFF7D3FFFFF796
:1003D000AFFF002008BD0000034A1168034B1B78E3
:1003E0000B441360704700BF28000020000000206D
:1003F000014B1868704700BF2800002082B0084BEE
:100400001B68084AA2FB03235B0A00FB03F0019070
:1004100000BF019B5A1E0192002BF9D102B0704718
:1004200008000020D34D621070B582B00446036806
:1004300013F0010F2CD0AB4B5B6803F00C03042BC3
:100440001DD0A84B5B6803F00C03082B12D0636827
:10045000B3F5803F41D0002B55D103F1804303F524
:1004600004331A6822F480321A601A6822F4802257
:100470001A6037E09B4B5B6813F4803FE7D0994BE1
:100480001B6813F4003F03D06368002B00F0AE81BB
:10049000236813F0020F75D0924B5B6813F00C0FBA
:1004A0005FD0904B5B6803F00C03082B54D023699A
:1004B000002B00F089808C4B01221A60FFF798FF17
:1004C0000546884B1B6813F0020F74D1FFF790FFAD
:1004D000401B0228F5D903208DE1824A136843F4BA
:1004E00080331360636843B3FFF782FF05467D4B9B
:1004F0001B6813F4003FCBD1FFF77AFF401B642841
:10050000F5D9032077E1B3F5A02F09D0754B1A6810
:1005100022F480321A601A6822F480221A60E1E71D
:1005200003F18043A3F53C331A6842F480221A6039
:100530001A6842F480321A60D4E7FFF759FF054683
:10054000684B1B6813F4003FA2D0FFF751FF401B1C
:100550006428F5D903204EE1624B5B6813F4803FB9
:10056000A5D1604B1B6813F0020F03D02369012B48
:1005700040F03E815B4A136823F0F803616943EA67
:10058000C1031360236813F0080F32D0A369002B56
:100590005BD0564B01221A60FFF72AFF0546514BEC
:1005A0005B6A13F0020F21D1FFF722FF401B0228E4
:1005B000F5D903201FE14B4A136823F0F803616962
:1005C00043EAC1031360DDE7474B00221A60FFF7DF
:1005D0000FFF0546434B1B6813F0020FD2D0FFF705
:1005E00007FF401B0228F5D9032004E10120FFF793
:1005F00005FF236813F0040F00F09880394BDB6986
:1006000013F0805F33D1374BDA6942F08052DA6100
:10061000DB6903F080530193019B0125344B1B6878
:1006200013F4807F25D0E368012B36D0002B4CD10A
:1006300003F1804303F504331A6A22F001021A62BF
:100640001A6A22F004021A622CE0284B00221A6077
:10065000FFF7CEFE0546234B5B6A13F0020FC8D0AE
:10066000FFF7C6FE401B0228F5D90320C3E0002592
:10067000D4E71F4A136843F480731360FFF7B8FE92
:1006800006461B4B1B6813F4807FCCD1FFF7B0FEEE
:10069000801B6428F5D90320ADE0124A136A43F0A9
:1006A00001031362E3687BB3FFF7A2FE06460D4B1E
:1006B0001B6A13F0020F38D1FFF79AFE801B41F23C
:1006C00088339842F3D9032095E0052B12D0054BCF
:1006D0001A6A22F001021A621A6A22F004021A62ED
:1006E000E0E700BF001002400000424280044242A6
:1006F00000700040424B1A6A42F004021A621A6A01
:1007000042F001021A62CDE7FFF772FE06463C4B4B
:100710001B6A13F0020F08D0FFF76AFE801B41F23C
:1007200088339842F3D9032065E0E5B9E369002BEB
:1007300060D0334A526802F00C02082A5DD0022BC6
:1007400017D0304B00221A60FFF752FE04462C4BA4
:100750001B6813F0007F47D0FFF74AFE001B0228FA
:10076000F5D9032047E0264AD36923F08053D361AB
:10077000DCE7244B00221A60FFF73AFE0546204BC7
:100780001B6813F0007F06D0FFF732FE401B0228E3
:10079000F5D903202FE0236AB3F5803F1AD018491A
:1007A0004B6823F47413226A606A024313434B605C
:1007B000144B01221A60FFF71BFE0446104B1B6806
:1007C00013F0007F0ED1FFF713FE001B0228F5D9AE
:1007D000032010E00A4AD36A23F00F03A1680B43F9
:1007E000D362DCE7002006E0002004E0012002E004
:1007F000012000E0002002B070BD0120FBE700BF37
:10080000001002406000424230B488B0174C94E8B7
:100810000F0008AD05E90F006D46103494E80F0095
:1008200085E80F00124B5B6803F00C02082A03D026
:10083000104808B030BC7047C3F3834208A90A448B
:1008400012F8102C13F4803F0CD0094BDB6A03F034
:100850000F030B4413F8203C064800FB02F0B0FBEA
:10086000F3F0E6E7044800FB02F0E2E7680D000859
:100870000010024000127A0000093D0038B504461D
:10088000036813F0020F17D013F0040F04D04A4A84
:10089000536843F4E0635360236813F0080F04D0F7
:1008A000454A536843F460535360434A536823F006
:1008B000F003A1680B435360236813F0010F51D07C
:1008C0006368012B22D0022B27D03B4A126812F01A
:1008D000020F6ED038494A6822F0030213434B607E
:1008E000FFF786FD05466368012B1DD0022B2AD039
:1008F000314B5B6813F00C0F34D0FFF779FD401BD0
:1009000041F288339842F3D9032051E02A4A126811
:1009100012F4003FDED101204AE0274A126812F0AB
:10092000007FD7D1012043E0234B5B6803F00C0329
:10093000042B17D0FFF75CFD401B41F2883398422F
:10094000F2D9032034E01C4B5B6803F00C03082B46
:1009500008D0FFF74DFD401B41F288339842F2D991
:10096000032025E0236813F0040F06D0124A5368D1
:1009700023F4E063E1680B435360236813F0080F2E
:1009800007D00D4A536823F46053216943EAC10339
:100990005360FFF739FF084B5B68C3F30313074A43
:1009A000D35CD840064B18600020FFF7E3FC002022
:1009B00038BD0120FCE700BF00100240880D000890
:1009C00008000020F0B482B000263546A0E0002BDD
:1009D00058D0012B10D1CE680EE0694FBB4251D0E8
:1009E00048D9684FBB424DD007F58037BB4249D04C
:1009F000A7F58017BB4245D0FF2A57D88446FF2A67
:100A000057D8AC00DCF800300F27A74023EA0703D3
:100A100006FA04F42343CCF800304B6813F0805FEF
:100A200075D0594B9C6944F001049C619B6903F0AB
:100A300001030193019BAC08A71C544B53F82730CA
:100A400005F00307BF004FF00F0C0CFA07FC23EA78
:100A50000C0C4F4B984232D003F58063984270D013
:100A600003F5806398426ED003F58063984224D0EA
:100A7000042325E0A7F58017BB4203D007F5803794
:100A8000BB42B9D18B687BB1012B08D044610826E9
:100A9000B2E7CE680836AFE7CE680C36ACE7046143
:100AA0000826A9E70026A7E70426A5E700F1040C1D
:100AB000A5E7A5F10804A400A4E7032300E00023B0
:100AC000BB4043EA0C030234304F47F824304B68F4
:100AD00013F4803F39D02F4C2368134323604B68B5
:100AE00013F4003F37D02B4C6368134363604B68AB
:100AF00013F4801F35D0274CA3681343A3604B68C1
:100B000013F4001F33D0234CE3681A43E26001352D
:100B10000F2D32D80124AC400A6822409442F6D10D
:100B20004B68122BB8D03FF658AF022BB1D07FF6EE
:100B30004EAF032BB6D0112B7FF45EAFCE680436D8
:100B40005AE70123BCE70223BAE7124C236823EAE1
:100B500002032360C3E70F4C636823EA0203636068
:100B6000C5E70C4CA36823EA0203A360C7E7094C5E
:100B7000E36823EA0202E260C9E702B0F0BC704712
:100B80000000211000003110001002400000014060
:100B900000080140000401400AB1016170470904E6
:100BA00001617047074AD36823F4E0631B041B0C00
:100BB000000200F4E060184340F0BF6040F40030F1
:100BC000D060704700ED00E030B4174BDB68C3F332
:100BD0000223C3F10704042C28BF04241D1D062D85
:100BE00001D9033B00E000234FF0FF3505FA04F480
:100BF00021EA0401994005FA03F322EA03031943A9
:100C0000002809DB0901C9B200F1604000F561402C
:100C100080F8001330BC704700F00F000901C9B222
:100C2000024B1954F6E700BF00ED00E014ED00E0C0
:100C30000138B0F1807F0AD2064B5860064AF02195
:100C400082F823100020986007221A607047012064
:100C5000704700BF10E000E000ED00E0104B1A68A4
:100C600042F001021A6059680E4A0A405A601A6836
:100C700022F0847222F480321A601A6822F48022F0
:100C80001A605A6822F4FE025A604FF41F029A60FA
:100C90000022DA62044B4FF000629A60704700BF96
:100CA000001002400000FFF800ED00E0002103E02A
:100CB0000B4B5B58435004310A480B4B42189A4285
:100CC000F6D30A4A02E0002342F8043B084B9A425A
:100CD000F9D3FFF7C3FF00F00FF8FFF703FB7047EE
:100CE000A00D0008000000200C0000200C000020D7
:100CF0002C000020FEE7000070B500260C4D0D4CC6
:100D0000641BA410A64209D100F022F800260A4D67
:100D10000A4C641BA410A64205D170BD55F8043BD3
:100D200098470136EEE755F8043B98470136F2E75D
:100D3000980D0008980D0008980D00089C0D0008FB
:100D400003460244934200D1704703F8011BF9E7C0
:100D5000F8B500BFF8BC08BC9E467047F8B500BFA8
:080D6000F8BC08BC9E46704778
:100D680002030405060708090A0B0C0D0E0F1010E4
:100D78000102030405060708090A0B0C0D0E0F10E3
:100D88000000000000000000010203040607080933
:040D9800F501000859
:040D9C00D101000879
:0C0DA000010000001000000000366E0191
:0400000508000CAD36
:00000001FF
